{
  "contractName": "PharmaSupplyContract",
  "abi": [
    {
      "anonymous": false,
      "inputs": [
        {
          "indexed": true,
          "internalType": "address",
          "name": "previousOwner",
          "type": "address"
        },
        {
          "indexed": true,
          "internalType": "address",
          "name": "newOwner",
          "type": "address"
        }
      ],
      "name": "OwnershipTransferred",
      "type": "event"
    },
    {
      "inputs": [
        {
          "internalType": "uint256",
          "name": "",
          "type": "uint256"
        },
        {
          "internalType": "uint256",
          "name": "",
          "type": "uint256"
        }
      ],
      "name": "comapnyDrugs",
      "outputs": [
        {
          "internalType": "uint256",
          "name": "temperature",
          "type": "uint256"
        },
        {
          "internalType": "string",
          "name": "imageUrl",
          "type": "string"
        },
        {
          "internalType": "uint256",
          "name": "humidity",
          "type": "uint256"
        },
        {
          "internalType": "string",
          "name": "name",
          "type": "string"
        },
        {
          "internalType": "uint256",
          "name": "drugId",
          "type": "uint256"
        },
        {
          "internalType": "uint256",
          "name": "supply",
          "type": "uint256"
        }
      ],
      "stateMutability": "view",
      "type": "function",
      "constant": true
    },
    {
      "inputs": [
        {
          "internalType": "uint256",
          "name": "",
          "type": "uint256"
        },
        {
          "internalType": "uint256",
          "name": "",
          "type": "uint256"
        },
        {
          "internalType": "uint256",
          "name": "",
          "type": "uint256"
        },
        {
          "internalType": "uint256",
          "name": "",
          "type": "uint256"
        }
      ],
      "name": "drugTrailMap",
      "outputs": [
        {
          "internalType": "uint256",
          "name": "temperature",
          "type": "uint256"
        },
        {
          "internalType": "uint256",
          "name": "humidity",
          "type": "uint256"
        },
        {
          "internalType": "uint256",
          "name": "timestamp",
          "type": "uint256"
        },
        {
          "internalType": "address",
          "name": "handler",
          "type": "address"
        },
        {
          "internalType": "string",
          "name": "location",
          "type": "string"
        }
      ],
      "stateMutability": "view",
      "type": "function",
      "constant": true
    },
    {
      "inputs": [
        {
          "internalType": "uint256",
          "name": "",
          "type": "uint256"
        },
        {
          "internalType": "uint256",
          "name": "",
          "type": "uint256"
        },
        {
          "internalType": "uint256",
          "name": "",
          "type": "uint256"
        }
      ],
      "name": "handlers",
      "outputs": [
        {
          "internalType": "address",
          "name": "",
          "type": "address"
        }
      ],
      "stateMutability": "view",
      "type": "function",
      "constant": true
    },
    {
      "inputs": [
        {
          "internalType": "uint256",
          "name": "",
          "type": "uint256"
        }
      ],
      "name": "idToComapanyMap",
      "outputs": [
        {
          "internalType": "address",
          "name": "companyOwner",
          "type": "address"
        },
        {
          "internalType": "string",
          "name": "MFID",
          "type": "string"
        },
        {
          "internalType": "string",
          "name": "name",
          "type": "string"
        },
        {
          "internalType": "uint256",
          "name": "totalDrugs",
          "type": "uint256"
        }
      ],
      "stateMutability": "view",
      "type": "function",
      "constant": true
    },
    {
      "inputs": [],
      "name": "owner",
      "outputs": [
        {
          "internalType": "address",
          "name": "",
          "type": "address"
        }
      ],
      "stateMutability": "view",
      "type": "function",
      "constant": true
    },
    {
      "inputs": [
        {
          "internalType": "address",
          "name": "",
          "type": "address"
        }
      ],
      "name": "ownerToCompanyId",
      "outputs": [
        {
          "internalType": "uint256",
          "name": "",
          "type": "uint256"
        }
      ],
      "stateMutability": "view",
      "type": "function",
      "constant": true
    },
    {
      "inputs": [],
      "name": "renounceOwnership",
      "outputs": [],
      "stateMutability": "nonpayable",
      "type": "function"
    },
    {
      "inputs": [
        {
          "internalType": "address",
          "name": "newOwner",
          "type": "address"
        }
      ],
      "name": "transferOwnership",
      "outputs": [],
      "stateMutability": "nonpayable",
      "type": "function"
    },
    {
      "inputs": [
        {
          "internalType": "address",
          "name": "_owner",
          "type": "address"
        },
        {
          "internalType": "string",
          "name": "_MFID",
          "type": "string"
        },
        {
          "internalType": "string",
          "name": "_name",
          "type": "string"
        }
      ],
      "name": "registerCompany",
      "outputs": [],
      "stateMutability": "nonpayable",
      "type": "function"
    },
    {
      "inputs": [
        {
          "internalType": "uint256",
          "name": "_companyId",
          "type": "uint256"
        },
        {
          "internalType": "uint256",
          "name": "_temperature",
          "type": "uint256"
        },
        {
          "internalType": "string",
          "name": "_imageUrl",
          "type": "string"
        },
        {
          "internalType": "uint256",
          "name": "_humidity",
          "type": "uint256"
        },
        {
          "internalType": "string",
          "name": "_name",
          "type": "string"
        }
      ],
      "name": "registerDrug",
      "outputs": [],
      "stateMutability": "nonpayable",
      "type": "function"
    },
    {
      "inputs": [
        {
          "internalType": "uint256",
          "name": "_companyId",
          "type": "uint256"
        },
        {
          "internalType": "uint256",
          "name": "_temperature",
          "type": "uint256"
        },
        {
          "internalType": "string",
          "name": "_imageUrl",
          "type": "string"
        },
        {
          "internalType": "uint256",
          "name": "_humidity",
          "type": "uint256"
        },
        {
          "internalType": "string",
          "name": "_name",
          "type": "string"
        },
        {
          "internalType": "uint256",
          "name": "_drugId",
          "type": "uint256"
        }
      ],
      "name": "updateDrug",
      "outputs": [],
      "stateMutability": "nonpayable",
      "type": "function"
    },
    {
      "inputs": [
        {
          "internalType": "uint256",
          "name": "_companyId",
          "type": "uint256"
        },
        {
          "internalType": "uint256",
          "name": "_drugId",
          "type": "uint256"
        },
        {
          "internalType": "uint256",
          "name": "_supply",
          "type": "uint256"
        },
        {
          "internalType": "address[]",
          "name": "_handlers",
          "type": "address[]"
        }
      ],
      "name": "issueDrugs",
      "outputs": [],
      "stateMutability": "nonpayable",
      "type": "function"
    },
    {
      "inputs": [
        {
          "internalType": "uint256",
          "name": "_companyId",
          "type": "uint256"
        },
        {
          "internalType": "uint256",
          "name": "_drugId",
          "type": "uint256"
        },
        {
          "internalType": "uint256",
          "name": "_productId",
          "type": "uint256"
        },
        {
          "internalType": "uint256",
          "name": "_temperature",
          "type": "uint256"
        },
        {
          "internalType": "uint256",
          "name": "_humidity",
          "type": "uint256"
        },
        {
          "internalType": "string",
          "name": "_location",
          "type": "string"
        }
      ],
      "name": "updateProductState",
      "outputs": [],
      "stateMutability": "nonpayable",
      "type": "function"
    },
    {
      "inputs": [
        {
          "internalType": "uint256",
          "name": "_companyId",
          "type": "uint256"
        },
        {
          "internalType": "uint256",
          "name": "_drugId",
          "type": "uint256"
        },
        {
          "internalType": "uint256",
          "name": "_productId",
          "type": "uint256"
        }
      ],
      "name": "getDrugTrail",
      "outputs": [
        {
          "components": [
            {
              "internalType": "uint256",
              "name": "temperature",
              "type": "uint256"
            },
            {
              "internalType": "uint256",
              "name": "humidity",
              "type": "uint256"
            },
            {
              "internalType": "uint256",
              "name": "timestamp",
              "type": "uint256"
            },
            {
              "internalType": "address",
              "name": "handler",
              "type": "address"
            },
            {
              "internalType": "string",
              "name": "location",
              "type": "string"
            }
          ],
          "internalType": "struct PharmaSupplyContract.DrugState[]",
          "name": "",
          "type": "tuple[]"
        }
      ],
      "stateMutability": "view",
      "type": "function",
      "constant": true
    }
  ],
  "bytecode": "0x608060405234801561001057600080fd5b5061002d61002261003260201b60201c565b61003a60201b60201c565b6100fe565b600033905090565b60008060009054906101000a900473ffffffffffffffffffffffffffffffffffffffff169050816000806101000a81548173ffffffffffffffffffffffffffffffffffffffff021916908373ffffffffffffffffffffffffffffffffffffffff1602179055508173ffffffffffffffffffffffffffffffffffffffff168173ffffffffffffffffffffffffffffffffffffffff167f8be0079c531659141344cd1fd0a4f28419497f9722a3daafe3b4186f6b6457e060405160405180910390a35050565b6123b7806200010e6000396000f3fe608060405234801561001057600080fd5b50600436106100e95760003560e01c80634128e61b1161008c5780638da5cb5b116100665780638da5cb5b146102645780638e58238c14610282578063c67e01b61461029e578063f2fde38b146102ce576100e9565b80634128e61b1461020a5780634bf1c9cb1461023e578063715018a61461025a576100e9565b80631de0e1a6116100c85780631de0e1a61461016d57806324ccec8a146101895780633a5f1cb3146101be5780633bb36f95146101da576100e9565b806284c3c6146100ee5780630ddbfe761461011e5780631de0045514610151575b600080fd5b610108600480360381019061010391906116f5565b6102ea565b6040516101159190611e79565b60405180910390f35b6101386004803603810190610133919061179d565b610302565b6040516101489493929190611d84565b60405180910390f35b61016b600480360381019061016691906118a9565b610462565b005b61018760048036038101906101829190611a8f565b6105de565b005b6101a3600480360381019061019e91906117c6565b610898565b6040516101b596959493929190611e94565b60405180910390f35b6101d860048036038101906101d39190611802565b6109f1565b005b6101f460048036038101906101ef9190611962565b610b9c565b6040516102019190611dd7565b60405180910390f35b610224600480360381019061021f9190611a2c565b610dd8565b604051610235959493929190611f03565b60405180910390f35b610258600480360381019061025391906119b1565b610eed565b005b61026261100e565b005b61026c611096565b6040516102799190611d69565b60405180910390f35b61029c6004803603810190610297919061171e565b6110bf565b005b6102b860048036038101906102b39190611962565b611281565b6040516102c59190611d69565b60405180910390f35b6102e860048036038101906102e391906116f5565b6112dc565b005b60066020528060005260406000206000915090505481565b60056020528060005260406000206000915090508060000160009054906101000a900473ffffffffffffffffffffffffffffffffffffffff169080600101805461034b90612119565b80601f016020809104026020016040519081016040528092919081815260200182805461037790612119565b80156103c45780601f10610399576101008083540402835291602001916103c4565b820191906000526020600020905b8154815290600101906020018083116103a757829003601f168201915b5050505050908060020180546103d990612119565b80601f016020809104026020016040519081016040528092919081815260200182805461040590612119565b80156104525780601f1061042757610100808354040283529160200191610452565b820191906000526020600020905b81548152906001019060200180831161043557829003601f168201915b5050505050908060030154905084565b3373ffffffffffffffffffffffffffffffffffffffff166005600088815260200190815260200160002060000160009054906101000a900473ffffffffffffffffffffffffffffffffffffffff1673ffffffffffffffffffffffffffffffffffffffff1614610506576040517f08c379a00000000000000000000000000000000000000000000000000000000081526004016104fd90611e39565b60405180910390fd5b846001600088815260200190815260200160002060008381526020019081526020016000206000018190555083600160008881526020019081526020016000206000838152602001908152602001600020600101908051906020019061056d9291906114a0565b5082600160008881526020019081526020016000206000838152602001908152602001600020600201819055508160016000888152602001908152602001600020600083815260200190815260200160002060030190805190602001906105d59291906114a0565b50505050505050565b600060036000888152602001908152602001600020600087815260200190815260200160002080548060200260200160405190810160405280929190818152602001828054801561068457602002820191906000526020600020905b8160009054906101000a900473ffffffffffffffffffffffffffffffffffffffff1673ffffffffffffffffffffffffffffffffffffffff168152602001906001019080831161063a575b505050505090506000805b8251811015610728578281815181106106d1577f4e487b7100000000000000000000000000000000000000000000000000000000600052603260045260246000fd5b602002602001015173ffffffffffffffffffffffffffffffffffffffff163373ffffffffffffffffffffffffffffffffffffffff1614156107155760019150610728565b80806107209061217c565b91505061068f565b5080610769576040517f08c379a000000000000000000000000000000000000000000000000000000000815260040161076090611e19565b60405180910390fd5b60006040518060a001604052808781526020018681526020014281526020013373ffffffffffffffffffffffffffffffffffffffff168152602001858152509050600260008a81526020019081526020016000206000898152602001908152602001600020600088815260200190815260200160002081908060018154018082558091505060019003906000526020600020906005020160009091909190915060008201518160000155602082015181600101556040820151816002015560608201518160030160006101000a81548173ffffffffffffffffffffffffffffffffffffffff021916908373ffffffffffffffffffffffffffffffffffffffff160217905550608082015181600401908051906020019061088a9291906114a0565b505050505050505050505050565b6001602052816000526040600020602052806000526040600020600091509150508060000154908060010180546108ce90612119565b80601f01602080910402602001604051908101604052809291908181526020018280546108fa90612119565b80156109475780601f1061091c57610100808354040283529160200191610947565b820191906000526020600020905b81548152906001019060200180831161092a57829003601f168201915b50505050509080600201549080600301805461096290612119565b80601f016020809104026020016040519081016040528092919081815260200182805461098e90612119565b80156109db5780601f106109b0576101008083540402835291602001916109db565b820191906000526020600020905b8154815290600101906020018083116109be57829003601f168201915b5050505050908060040154908060050154905086565b3373ffffffffffffffffffffffffffffffffffffffff166005600087815260200190815260200160002060000160009054906101000a900473ffffffffffffffffffffffffffffffffffffffff1673ffffffffffffffffffffffffffffffffffffffff1614610a95576040517f08c379a0000000000000000000000000000000000000000000000000000000008152600401610a8c90611e39565b60405180910390fd5b600060016005600088815260200190815260200160002060030154610aba9190612045565b905060006040518060c001604052808781526020018681526020018581526020018481526020018381526020016000815250905081600560008981526020019081526020016000206003018190555080600160008981526020019081526020016000206000848152602001908152602001600020600082015181600001556020820151816001019080519060200190610b549291906114a0565b50604082015181600201556060820151816003019080519060200190610b7b9291906114a0565b506080820151816004015560a0820151816005015590505050505050505050565b606060006002600086815260200190815260200160002060008581526020019081526020016000206000848152602001908152602001600020805490509050606060005b82811015610dcb5760026000888152602001908152602001600020600087815260200190815260200160002060008681526020019081526020016000208181548110610c55577f4e487b7100000000000000000000000000000000000000000000000000000000600052603260045260246000fd5b90600052602060002090600502016040518060a00160405290816000820154815260200160018201548152602001600282015481526020016003820160009054906101000a900473ffffffffffffffffffffffffffffffffffffffff1673ffffffffffffffffffffffffffffffffffffffff1673ffffffffffffffffffffffffffffffffffffffff168152602001600482018054610cf290612119565b80601f0160208091040260200160405190810160405280929190818152602001828054610d1e90612119565b8015610d6b5780601f10610d4057610100808354040283529160200191610d6b565b820191906000526020600020905b815481529060010190602001808311610d4e57829003601f168201915b505050505081525050828281518110610dad577f4e487b7100000000000000000000000000000000000000000000000000000000600052603260045260246000fd5b60200260200101819052508080610dc39061217c565b915050610be0565b5080925050509392505050565b60026020528360005260406000206020528260005260406000206020528160005260406000208181548110610e0c57600080fd5b90600052602060002090600502016000935093505050508060000154908060010154908060020154908060030160009054906101000a900473ffffffffffffffffffffffffffffffffffffffff1690806004018054610e6a90612119565b80601f0160208091040260200160405190810160405280929190818152602001828054610e9690612119565b8015610ee35780601f10610eb857610100808354040283529160200191610ee3565b820191906000526020600020905b815481529060010190602001808311610ec657829003601f168201915b5050505050905085565b3373ffffffffffffffffffffffffffffffffffffffff166005600086815260200190815260200160002060000160009054906101000a900473ffffffffffffffffffffffffffffffffffffffff1673ffffffffffffffffffffffffffffffffffffffff1614610f91576040517f08c379a0000000000000000000000000000000000000000000000000000000008152600401610f8890611e39565b60405180910390fd5b816001600086815260200190815260200160002060008581526020019081526020016000206005016000828254610fc89190612045565b92505081905550806003600086815260200190815260200160002060008581526020019081526020016000209080519060200190611007929190611526565b5050505050565b6110166113d4565b73ffffffffffffffffffffffffffffffffffffffff16611034611096565b73ffffffffffffffffffffffffffffffffffffffff161461108a576040517f08c379a000000000000000000000000000000000000000000000000000000000815260040161108190611e59565b60405180910390fd5b61109460006113dc565b565b60008060009054906101000a900473ffffffffffffffffffffffffffffffffffffffff16905090565b6110c76113d4565b73ffffffffffffffffffffffffffffffffffffffff166110e5611096565b73ffffffffffffffffffffffffffffffffffffffff161461113b576040517f08c379a000000000000000000000000000000000000000000000000000000000815260040161113290611e59565b60405180910390fd5b600060405180608001604052808573ffffffffffffffffffffffffffffffffffffffff1681526020018481526020018381526020016000815250905060016004600082825461118a9190612045565b925050819055508060056000600454815260200190815260200160002060008201518160000160006101000a81548173ffffffffffffffffffffffffffffffffffffffff021916908373ffffffffffffffffffffffffffffffffffffffff160217905550602082015181600101908051906020019061120a9291906114a0565b5060408201518160020190805190602001906112279291906114a0565b5060608201518160030155905050600454600660008673ffffffffffffffffffffffffffffffffffffffff1673ffffffffffffffffffffffffffffffffffffffff1681526020019081526020016000208190555050505050565b600360205282600052604060002060205281600052604060002081815481106112a957600080fd5b90600052602060002001600092509250509054906101000a900473ffffffffffffffffffffffffffffffffffffffff1681565b6112e46113d4565b73ffffffffffffffffffffffffffffffffffffffff16611302611096565b73ffffffffffffffffffffffffffffffffffffffff1614611358576040517f08c379a000000000000000000000000000000000000000000000000000000000815260040161134f90611e59565b60405180910390fd5b600073ffffffffffffffffffffffffffffffffffffffff168173ffffffffffffffffffffffffffffffffffffffff1614156113c8576040517f08c379a00000000000000000000000000000000000000000000000000000000081526004016113bf90611df9565b60405180910390fd5b6113d1816113dc565b50565b600033905090565b60008060009054906101000a900473ffffffffffffffffffffffffffffffffffffffff169050816000806101000a81548173ffffffffffffffffffffffffffffffffffffffff021916908373ffffffffffffffffffffffffffffffffffffffff1602179055508173ffffffffffffffffffffffffffffffffffffffff168173ffffffffffffffffffffffffffffffffffffffff167f8be0079c531659141344cd1fd0a4f28419497f9722a3daafe3b4186f6b6457e060405160405180910390a35050565b8280546114ac90612119565b90600052602060002090601f0160209004810192826114ce5760008555611515565b82601f106114e757805160ff1916838001178555611515565b82800160010185558215611515579182015b828111156115145782518255916020019190600101906114f9565b5b50905061152291906115b0565b5090565b82805482825590600052602060002090810192821561159f579160200282015b8281111561159e5782518260006101000a81548173ffffffffffffffffffffffffffffffffffffffff021916908373ffffffffffffffffffffffffffffffffffffffff16021790555091602001919060010190611546565b5b5090506115ac91906115b0565b5090565b5b808211156115c95760008160009055506001016115b1565b5090565b60006115e06115db84611f82565b611f5d565b905080838252602082019050828560208602820111156115ff57600080fd5b60005b8581101561162f57816116158882611677565b845260208401935060208301925050600181019050611602565b5050509392505050565b600061164c61164784611fae565b611f5d565b90508281526020810184848401111561166457600080fd5b61166f8482856120d7565b509392505050565b60008135905061168681612353565b92915050565b600082601f83011261169d57600080fd5b81356116ad8482602086016115cd565b91505092915050565b600082601f8301126116c757600080fd5b81356116d7848260208601611639565b91505092915050565b6000813590506116ef8161236a565b92915050565b60006020828403121561170757600080fd5b600061171584828501611677565b91505092915050565b60008060006060848603121561173357600080fd5b600061174186828701611677565b935050602084013567ffffffffffffffff81111561175e57600080fd5b61176a868287016116b6565b925050604084013567ffffffffffffffff81111561178757600080fd5b611793868287016116b6565b9150509250925092565b6000602082840312156117af57600080fd5b60006117bd848285016116e0565b91505092915050565b600080604083850312156117d957600080fd5b60006117e7858286016116e0565b92505060206117f8858286016116e0565b9150509250929050565b600080600080600060a0868803121561181a57600080fd5b6000611828888289016116e0565b9550506020611839888289016116e0565b945050604086013567ffffffffffffffff81111561185657600080fd5b611862888289016116b6565b9350506060611873888289016116e0565b925050608086013567ffffffffffffffff81111561189057600080fd5b61189c888289016116b6565b9150509295509295909350565b60008060008060008060c087890312156118c257600080fd5b60006118d089828a016116e0565b96505060206118e189828a016116e0565b955050604087013567ffffffffffffffff8111156118fe57600080fd5b61190a89828a016116b6565b945050606061191b89828a016116e0565b935050608087013567ffffffffffffffff81111561193857600080fd5b61194489828a016116b6565b92505060a061195589828a016116e0565b9150509295509295509295565b60008060006060848603121561197757600080fd5b6000611985868287016116e0565b9350506020611996868287016116e0565b92505060406119a7868287016116e0565b9150509250925092565b600080600080608085870312156119c757600080fd5b60006119d5878288016116e0565b94505060206119e6878288016116e0565b93505060406119f7878288016116e0565b925050606085013567ffffffffffffffff811115611a1457600080fd5b611a208782880161168c565b91505092959194509250565b60008060008060808587031215611a4257600080fd5b6000611a50878288016116e0565b9450506020611a61878288016116e0565b9350506040611a72878288016116e0565b9250506060611a83878288016116e0565b91505092959194509250565b60008060008060008060c08789031215611aa857600080fd5b6000611ab689828a016116e0565b9650506020611ac789828a016116e0565b9550506040611ad889828a016116e0565b9450506060611ae989828a016116e0565b9350506080611afa89828a016116e0565b92505060a087013567ffffffffffffffff811115611b1757600080fd5b611b2389828a016116b6565b9150509295509295509295565b6000611b3c8383611cd5565b905092915050565b611b4d8161209b565b82525050565b611b5c8161209b565b82525050565b6000611b6d82611fef565b611b778185612012565b935083602082028501611b8985611fdf565b8060005b85811015611bc55784840389528151611ba68582611b30565b9450611bb183612005565b925060208a01995050600181019050611b8d565b50829750879550505050505092915050565b6000611be282611ffa565b611bec8185612023565b9350611bfc8185602086016120e6565b611c0581612252565b840191505092915050565b6000611c1b82611ffa565b611c258185612034565b9350611c358185602086016120e6565b611c3e81612252565b840191505092915050565b6000611c56602683612034565b9150611c6182612263565b604082019050919050565b6000611c79601683612034565b9150611c84826122b2565b602082019050919050565b6000611c9c602383612034565b9150611ca7826122db565b604082019050919050565b6000611cbf602083612034565b9150611cca8261232a565b602082019050919050565b600060a083016000830151611ced6000860182611d4b565b506020830151611d006020860182611d4b565b506040830151611d136040860182611d4b565b506060830151611d266060860182611b44565b5060808301518482036080860152611d3e8282611bd7565b9150508091505092915050565b611d54816120cd565b82525050565b611d63816120cd565b82525050565b6000602082019050611d7e6000830184611b53565b92915050565b6000608082019050611d996000830187611b53565b8181036020830152611dab8186611c10565b90508181036040830152611dbf8185611c10565b9050611dce6060830184611d5a565b95945050505050565b60006020820190508181036000830152611df18184611b62565b905092915050565b60006020820190508181036000830152611e1281611c49565b9050919050565b60006020820190508181036000830152611e3281611c6c565b9050919050565b60006020820190508181036000830152611e5281611c8f565b9050919050565b60006020820190508181036000830152611e7281611cb2565b9050919050565b6000602082019050611e8e6000830184611d5a565b92915050565b600060c082019050611ea96000830189611d5a565b8181036020830152611ebb8188611c10565b9050611eca6040830187611d5a565b8181036060830152611edc8186611c10565b9050611eeb6080830185611d5a565b611ef860a0830184611d5a565b979650505050505050565b600060a082019050611f186000830188611d5a565b611f256020830187611d5a565b611f326040830186611d5a565b611f3f6060830185611b53565b8181036080830152611f518184611c10565b90509695505050505050565b6000611f67611f78565b9050611f73828261214b565b919050565b6000604051905090565b600067ffffffffffffffff821115611f9d57611f9c612223565b5b602082029050602081019050919050565b600067ffffffffffffffff821115611fc957611fc8612223565b5b611fd282612252565b9050602081019050919050565b6000819050602082019050919050565b600081519050919050565b600081519050919050565b6000602082019050919050565b600082825260208201905092915050565b600082825260208201905092915050565b600082825260208201905092915050565b6000612050826120cd565b915061205b836120cd565b9250827fffffffffffffffffffffffffffffffffffffffffffffffffffffffffffffffff038211156120905761208f6121c5565b5b828201905092915050565b60006120a6826120ad565b9050919050565b600073ffffffffffffffffffffffffffffffffffffffff82169050919050565b6000819050919050565b82818337600083830152505050565b60005b838110156121045780820151818401526020810190506120e9565b83811115612113576000848401525b50505050565b6000600282049050600182168061213157607f821691505b60208210811415612145576121446121f4565b5b50919050565b61215482612252565b810181811067ffffffffffffffff8211171561217357612172612223565b5b80604052505050565b6000612187826120cd565b91507fffffffffffffffffffffffffffffffffffffffffffffffffffffffffffffffff8214156121ba576121b96121c5565b5b600182019050919050565b7f4e487b7100000000000000000000000000000000000000000000000000000000600052601160045260246000fd5b7f4e487b7100000000000000000000000000000000000000000000000000000000600052602260045260246000fd5b7f4e487b7100000000000000000000000000000000000000000000000000000000600052604160045260246000fd5b6000601f19601f8301169050919050565b7f4f776e61626c653a206e6577206f776e657220697320746865207a65726f206160008201527f6464726573730000000000000000000000000000000000000000000000000000602082015250565b7f596f7520617265206e6f7420617574686f726973656400000000000000000000600082015250565b7f4f6e6c7920636f6d70616e79206f776e65722063616e20706572666f726d207460008201527f6869730000000000000000000000000000000000000000000000000000000000602082015250565b7f4f776e61626c653a2063616c6c6572206973206e6f7420746865206f776e6572600082015250565b61235c8161209b565b811461236757600080fd5b50565b612373816120cd565b811461237e57600080fd5b5056fea264697066735822122093a72e2c771329cd5672feba35b88074368364b8b0cc9ed9a5169a53aa787cea64736f6c63430008020033",
  "immutableReferences": {},
  "source": "// SPDX-License-Identifier: GPL-3.0\n\npragma solidity ^0.8.0;\nimport 'openzeppelin-solidity/contracts/access/Ownable.sol';\nimport 'openzeppelin-solidity/contracts/utils/Strings.sol';\ncontract PharmaSupplyContract is Ownable{\n    using Strings for uint;\n    /*\n        EVENTS\n        CREATEDRUG\n        UPDATE DRUG\n        CREATECOMPANY\n    */\n    struct Company{\n        address companyOwner;\n        string MFID;\n        string name;\n        uint totalDrugs;\n    }\n\n    //CID=>DID=>DRUG DETAILS\n    mapping(uint=>mapping(uint=>Drug)) public comapnyDrugs;   \n    struct Drug{\n        uint temperature;\n        string imageUrl;\n        uint humidity;\n        string name;\n        uint drugId;\n        uint supply;\n    }\n\n    struct DrugState{\n        uint temperature;\n        uint humidity;\n        uint timestamp;\n        address handler;\n        string location;\n    }\n    //CID=>DRIGID=>PRODUCTID=>DRUGSTATE[]\n    mapping(uint=>mapping(uint=>mapping(uint=>DrugState[]))) public drugTrailMap;\n\n    //CID=>DRUGID=>ADDRESS[]\n    mapping(uint=>mapping(uint=>address[])) public handlers;\n\n    uint totalCompanies;\n    mapping(uint=>Company) public idToComapanyMap;\n    mapping(address=>uint) public ownerToCompanyId;\n\n    function registerCompany(address _owner, string memory _MFID, string memory _name) external onlyOwner{\n        Company memory c = Company(_owner,_MFID,_name,0);\n        totalCompanies+=1;\n        idToComapanyMap[totalCompanies]=c;\n        ownerToCompanyId[_owner]=totalCompanies;\n    }\n    function registerDrug(uint _companyId,\n                uint _temperature,\n                string memory _imageUrl,\n                uint _humidity,\n                string memory _name\n    ) external {\n        require(idToComapanyMap[_companyId].companyOwner==msg.sender,\"Only company owner can perform this\");\n        uint _did = idToComapanyMap[_companyId].totalDrugs+1;\n        Drug memory d = Drug(_temperature,_imageUrl,_humidity,_name,_did,0);\n        \n        idToComapanyMap[_companyId].totalDrugs=_did;\n        comapnyDrugs[_companyId][_did] = d;   \n\n         \n        //DRUGID = C+COMPANYID+D+DRUGID\n    }\n\n    function updateDrug(\n                uint _companyId,\n                uint _temperature,\n                string memory _imageUrl,\n                uint _humidity,\n                string memory _name,\n                uint _drugId\n    ) external {\n        require(idToComapanyMap[_companyId].companyOwner==msg.sender,\"Only company owner can perform this\");\n        comapnyDrugs[_companyId][_drugId].temperature = _temperature;\n        comapnyDrugs[_companyId][_drugId].imageUrl = _imageUrl;\n        comapnyDrugs[_companyId][_drugId].humidity = _humidity;\n        comapnyDrugs[_companyId][_drugId].name = _name;\n    }\n\n\n    function issueDrugs(uint _companyId,uint _drugId, uint _supply, address[] memory _handlers) external {\n        require(idToComapanyMap[_companyId].companyOwner==msg.sender,\"Only company owner can perform this\");\n        comapnyDrugs[_companyId][_drugId].supply += _supply;\n        handlers[_companyId][_drugId]=_handlers;\n\n        //return all product ids\n        \n    }\n\n    function updateProductState(uint _companyId, uint _drugId, uint _productId, uint _temperature, uint _humidity, string memory _location) external {\n        address[] memory _handlers = handlers[_companyId][_drugId];\n        bool isAuthorised;\n        for(uint i;i<_handlers.length;i++){\n            if(msg.sender==_handlers[i]){\n                isAuthorised=true;\n                break;\n            }\n        }\n        require(isAuthorised,\"You are not authorised\");\n        DrugState memory state = DrugState(_temperature, _humidity,block.timestamp,msg.sender,_location); \n        drugTrailMap[_companyId][_drugId][_productId].push(state);\n    }\n\n\n    function getDrugTrail(uint _companyId, uint _drugId, uint _productId) public view returns(DrugState[] memory){\n        uint len = drugTrailMap[_companyId][_drugId][_productId].length;\n        DrugState[] memory state;\n        for(uint i;i<len;i++){\n            state[i]=drugTrailMap[_companyId][_drugId][_productId][i];\n        }\n        return state;\n    }\n\n\n}\n\n// [\"0x4B20993Bc481177ec7E8f571ceCaE8A9e22C02db\",\"0x78731D3Ca6b7E34aC0F824c42a7cC18A495cabaB\",\"0x617F2E2fD72FD9D5503197092aC168c91465E7f2\"]",
  "sourcePath": "E:\\KUSH\\PharmaSupply5\\contracts\\PharmaSupplyContract.sol",
  "compiler": {
    "name": "solc",
    "version": "0.8.2+commit.661d1103.Emscripten.clang"
  },
  "schemaVersion": "3.4.3",
  "updatedAt": "2022-06-03T13:07:28.417Z",
  "networkType": "ethereum",
  "devdoc": {
    "kind": "dev",
    "methods": {
      "owner()": {
        "details": "Returns the address of the current owner."
      },
      "renounceOwnership()": {
        "details": "Leaves the contract without owner. It will not be possible to call `onlyOwner` functions anymore. Can only be called by the current owner. NOTE: Renouncing ownership will leave the contract without an owner, thereby removing any functionality that is only available to the owner."
      },
      "transferOwnership(address)": {
        "details": "Transfers ownership of the contract to a new account (`newOwner`). Can only be called by the current owner."
      }
    },
    "version": 1
  },
  "userdoc": {
    "kind": "user",
    "methods": {},
    "version": 1
  }
}